:020000040800F2
:10000000400500209D010008051E0008E7160008B5
:10001000211D0008D9020008112900080000000075
:10002000000000000000000000000000892100081E
:100030006D03000800000000271E00088B21000847
:10004000B7010008B7010008B7010008B7010008B0
:10005000B7010008B7010008B7010008B7010008A0
:10006000B7010008B7010008B7010008B701000890
:10007000B7010008B7010008B7010008B701000880
:10008000B7010008B7010008B7010008B701000870
:10009000B7010008B7010008B7010008B701000860
:1000A000B7010008B7010008B7010008B701000850
:1000B000B7010008B7010008B7010008B701000840
:1000C000B7010008B7010008B7010008B701000830
:1000D000B7010008F928000805290008B701000841
:1000E000B7010008B7010008B7010008B701000810
:1000F000B7010008B7010008B7010008B701000800
:10010000B7010008B7010008B7010008B7010008EF
:10011000B7010008B7010008B7010008B7010008DF
:10012000B7010008B7010008B7010008B7010008CF
:10013000B7010008B7010008B7010008B7010008BF
:10014000B7010008B7010008B7010008B7010008AF
:10015000B7010008B7010008B7010008B70100089F
:10016000B7010008B7010008B7010008B70100088F
:10017000B7010008B7010008B7010008000000003F
:10018000B7010008B7010008DFF80CD000F092F8C2
:1001900000480047B52D000840050020064880476C
:1001A00006480047FEE7FEE7FEE7FEE7FEE7FEE75C
:1001B000FEE7FEE7FEE7FEE72522000889010008CA
:1001C0002DE9F05F0546002092469B46884606468C
:1001D000814640241BE0284641464746224600F01F
:1001E00058F853465A46C01A914110D31146184642
:1001F000224600F03FF82D1A67EB01084F462246D1
:100200000120002100F036F817EB00094E41201EB6
:10021000A4F10104DFDC484631462A464346BDE8E6
:10022000F09F00000649074A0868504343F239022C
:10023000104408604008704701490860704700009A
:10024000480000206D4EC64130B50B4601460020E7
:100250002022012409E021FA02F59D4205D303FA88
:1002600002F5491B04FA02F52844151EA2F1010209
:10027000F1DC30BD202A04DB203A00FA02F1002034
:1002800070479140C2F1200320FA03F319439040D4
:100290007047202A04DB203A21FA02F0002170473F
:1002A00021FA02F3D040C2F12002914008431946DE
:1002B00070470000064C074D06E0E06840F001037F
:1002C00094E8070098471034AC42F6D3FFF760FF7C
:1002D000C82E0008E82E0008FEE700002DE9F041D6
:1002E0000E4E4FF400652946304600F0EDF90C4CF7
:1002F0006F0039462070304600F0E6F929466070FC
:100300004FF09045284600F0DFF9A07039462846A6
:1003100000F0DAF9E070BDE8F08100000004004868
:1003200021000020044881784268914201D10221D5
:1003300000E00121C17070470C00002009490A4803
:100340000A78012A07D04A78012A06D0897801293B
:1003500006D0002102E0012100E0022181707047F7
:100360000321FBE7330000200C0000207047000051
:10037000294810B5007818B10021012813D000E0F9
:1003800001210022114327D02448254C01784278CE
:10039000807811430143607807D001212170022841
:1003A0000DD0617003E00122ECE7012804D100F0D8
:1003B0003BF86060022060702078012806D16068F8
:1003C00001F000FCFFF7BAFFFFF7ACFF01F0D6FC2D
:1003D000BDE8104001F0B6BE02281BD111480078DC
:1003E000022817D1012001F0E1FC022001F0DEFC1F
:1003F000032001F0DBFC4FF4FA7000F074F80120E8
:1004000001F0EAFC022001F0E7FCBDE81040032007
:1004100001F0E2BC10BD00002600002033000020E7
:100420000C00002028000020074810B58068FFF766
:1004300003FFFFF7F7FE032190FBF1F201FB12002F
:10044000401CC0B210BD00000C00002070B5104D63
:100450004FF40051284600F037F998B100200D4CB8
:100460004FF480412070284600F02EF960B1002042
:1004700060704FF40041284600F026F930B10020AA
:10048000A07070BD0120EAE70120F1E70120F7E745
:10049000000400483300002010B590F82510002417
:1004A000022903D00421C16301241AE001680A680B
:1004B00022F00E020A6001680A6822F001020A6056
:1004C00090F84410036C01F01C02012101FA02F2C1
:1004D0005A6080F82510002180F82410816B01B14A
:1004E0008847204610BD70B5044600F0F7F8054671
:1004F000601C00D0641C00F0F1F8401BA042FAD34D
:1005000070BD00002DE9F84FDFF898B100234FF0DF
:10051000010C4FF0030A4FF00F090BF1040EB9E084
:100520000CFA03F4224070D04D68022D01D0122D38
:100530000ED1DD0800EB8508D8F820505E07F70ED5
:1005400009FA07F6B5430E69BE402E43C8F820608D
:1005500007685E0091F804800AFA06F508F00308BF
:10056000AF4308FA06F848EA0708C0F800804F6869
:10057000012F05D0022F03D0112F01D0122F13D13C
:10058000D0F80880CF6828EA0508B74047EA08078E
:100590008760D0F804800F7928EA0408C7F30017B1
:1005A0009F4047EA08074760D1F804806FEA0807D0
:1005B000BF0706D1C76AA743C8F3C0049C403C43A9
:1005C000C462C468AC438D68B5402543C5604C68BF
:1005D000E4005ED5344C256E45F001052566246E99
:1005E00023F0030504F001040094304C2E19B46884
:1005F0009D072F0F09FA07F5AC43B0F1904F05D0D6
:100600002B4DA84204D101251CE042E0002519E051
:10061000284DA84201D1022514E0274DA84201D15E
:1006200003250FE0254DA84201D104250AE0244D01
:10063000A84201D1052505E0224DA84201D1062599
:1006400000E00725BD402543B560DBF800405D466E
:100650004E689443F60300D514432C60DEF8004046
:1006600075464E689443B60300D514432C600D4D77
:1006700008352C684E689443F60200D514432C606C
:10068000084D0C352C684E689443B60200D51443CF
:100690002C605B1C0A6832FA03F57FF441AFBDE8B9
:1006A000F88F0000000401400010024000000140EB
:1006B0000004004800080048000C004800100048F2
:1006C00000140048001800480069084000D00120CC
:1006D00070470AB1816170478162704701480068C4
:1006E000704700001800002002480168491C0160A2
:1006F000704700001800002010B50024032000F00F
:100700008FF8002000F008F808B1012401E000F0A3
:100710001BF8204610BD000070B5054609484FF48F
:100720007A7100240068B0FBF1F000F0E2FD08B13E
:10073000012404E000222946501E00F051F8204612
:1007400070BD00001C0000201E4808B5016E41F07D
:1007500001010166016E01F001010091816D41F01E
:1007600080518165806D00F080500090032000F082
:1007700057F8002211466FF00B0000F031F800220C
:1007800011466FF00A0000F02BF8002211466FF0BE
:10079000090000F025F800221146501F00F020F853
:1007A00000221146101F00F01BF800221146901E77
:1007B00000F016F80022BDE808401146501E00F077
:1007C0000FB800000010024000F01F02012191400C
:1007D0004009800000F1E020C0F8001170470000DF
:1007E000F0B40E4B1B680C46C3F30223C3F107059C
:1007F000042D00D90425191D072901D2002300E08A
:10080000DB1E012606FA05F1491E214099409E4053
:10081000761E16403143F0BC01F0F5BA0CED00E055
:10082000064900F0070208684FF6FF03184040EA47
:100830000220034A10430860704700000CED00E0FE
:100840000000FA051649B0F5007F0868C0F34120A2
:1008500009D0022805D0086820F4C06040F4806008
:100860000860002070470128FBD0086820F4C060B1
:1008700040F4007008600B483222006850430A4A76
:10088000B0FBF2F0401C00E0401E4A69520501D561
:100890000028F9D148694005E3D5032070470000DE
:1008A000007000401C00002040420F000248006819
:1008B00000F4C06070470000007000402DE9F84F60
:1008C000044600270088E54D3E46010504F1200B53
:1008D0001DD5606E78B1B0F5800F11D0B0F5000F66
:1008E00004D0B0F5400F22D001270FE0E86840F4B3
:1008F0008030E8601BE00021201D01F095FA03E044
:100900000021584601F026FB070010D03E46208803
:10091000C00426D5A06EC0B1B0F1807F1AD0B0F16E
:10092000007F0DD0B0F1407F19D0012718E0D5F835
:100930008800616E20F440000843C5F88800E6E7AF
:10094000E86840F48030E86009E00021201D01F0F3
:100950006BFA03E00021584601F0FCFA0746F7B1B4
:100960003E46206880033AD5A86D4FF00008C000CD
:1009700009D4A86D40F08050A865A86D4FF001081B
:1009800000F080500090DFF8D8A2DAF8001041F4AF
:100990008071CAF80010FFF7A1FE814610E0D5F87B
:1009A0008800A16E20F040700843C5F88800D8E7A1
:1009B000FFF794FEA0EB0900022801D9032705E008
:1009C000DAF80000C005F3D5002F7CD04FEA070607
:1009D000B8F1000F03D0A86D20F08050A8652078F2
:1009E000C00707D0D5F88800A16B20F003000843AA
:1009F000C5F888002078800707D5D5F88800E16B16
:100A000020F00C000843C5F888002078400707D57F
:100A1000D5F88800216C20F030000843C5F8880024
:100A20002078000707D5D5F88800616C20F0C00059
:100A30000843C5F888002078C00607D5D5F8880097
:100A4000A16C20F440700843C5F888002078800627
:100A500007D5D5F88800E16C20F440600843C5F85C
:100A600088002088800507D5D5F88800E16D20F43E
:100A700040200843C5F888002088400507D5D5F8F0
:100A80008800216E20F440100843C5F888002078C3
:100A9000400607D5D5F88800216D20F44050084362
:100AA000C5F888002078000607D5D5F88800616D64
:100AB00020F440400843C5F888002088C00509D5C7
:100AC000D5F8880000E01CE0A16D20F44030084318
:100AD000C5F8880020884FF0006780044FF08068D8
:100AE0004FD5D5F88800E16E20F040600843C5F886
:100AF0008800E06EB8423CD1E86840F48010E860BD
:100B00003FE0D5F8900010F4407015D0D4F8841070
:100B1000814211D0D5F89000D5F8901020F44070A3
:100B200041F48031C5F89010D5F8901021F480314F
:100B3000C5F89010C5F89000C00710D0FFF7CEFDA3
:100B4000074641F2883906E0FFF7C8FDC11B494559
:100B500001D903263CE7D5F890008007F4D5D5F8F5
:100B60009000D4F8841020F440700843C5F8900039
:100B70002EE7404505D10121201D01F055F900B1B6
:100B800006462068000317D5D5F88800216F20F0AD
:100B900040600843C5F88800206FB84204D1E86877
:100BA00040F48010E86007E0404505D10121201D98
:100BB00001F03AF900B106462068400317D5D5F890
:100BC0008800616F20F040600843C5F88800606FBE
:100BD000B84204D1E86840F48010E86007E040457E
:100BE00005D10121201D01F01FF900B10646208822
:100BF00040041AD5D5F88800A16F20F04050084372
:100C0000C5F88800A06FB0F1805F03D0B0F1005F3D
:100C100005D00AE00221201D01F006F903E00221BF
:100C2000584601F097F900B106462088000407D520
:100C3000D5F88800E16F20F080400843C5F88800AF
:100C40002068C00307D555F8880FD4F8801020F02D
:100C50000040084328603046BDE8F88F001002408D
:100C6000007000402DE9F0470F46050058D03F4E78
:100C7000306800F00700B84209D2306820F0070061
:100C800038433060306800F00700B84248D1287817
:100C9000374CC0072CD06868032811D0022812D026
:100CA000216898B1490500293ADAA16821F00301C9
:100CB0000143A160FFF712FD804641F2883910E040
:100CC00021688901EFE721688903ECE78907EAE7F2
:100CD000FFF704FDA0EB0801494502D90320BDE858
:100CE000F087A068696800F00C00B0EB810FEFD1CD
:100CF0002878800705D5A068A96820F0F00008438F
:100D0000A060306800F00700B8420BD9306820F0CE
:100D1000070038433060306800F00700B84201D067
:100D20000120DCE72878400705D5A068E96820F4B1
:100D3000E0600843A0602878000706D5A06829690C
:100D400020F4605040EAC100A06000F041F8A168C2
:100D5000084AC1F30311515C01F01F01C840064964
:100D60000860BDE8F0470020FFF7D6BC0020024035
:100D700000100240802E00081C000020014800687E
:100D8000704700001C00002005480649006889687B
:100D9000054AC1F30221515C01F01F01C8407047B0
:100DA0001C00002000100240C02E00080548064923
:100DB00000688968054AC1F3C221515C01F01F0136
:100DC000C84070471C00002000100240C02E0008E0
:100DD00070B52549002318468A68CC6812F00C02C9
:100DE00004F00306214C4FEA640509D00C2A05D013
:100DF000042A26D0082A00D1284670BD012E10D121
:100E00000B681B0704D4D1F89430C3F3032302E02A
:100E10000B68C3F30313164E56F823307AB10C2A2D
:100E2000EBD1C86800F00302C868C0F30210401C90
:100E3000022A08D0032A09D0B3FBF0F008E01846D4
:100E400070BD204670BDB4FBF0F001E0B5FBF0F0E2
:100E5000CA68C968C2F306225043C1F34161491C04
:100E60004900B0FBF1F070BD001002400024F40016
:100E7000902E00082DE9F84305007CD0FD4CA068B9
:100E800000F00C06E06800F003072878C00661D582
:100E900076B10C2E01D1012F0AD0A8690028206854
:100EA00078D040F001002060FFF718FC804659E040
:100EB0002068800702D5A8690028DED0286A21684A
:100EC000090703D5216801F0F00104E0D4F894107B
:100ED000F02202EA1111884215D901F0BFF800286A
:100EE00049D1206840F0080020602068296A20F07D
:100EF000F000084320606068E96920F47F4040EA20
:100F00000120606015E0206840F008002060206843
:100F1000296A20F0F000084320606068E96920F445
:100F20007F4040EA01206060286A01F097F80028BD
:100F3000D6D1FFF74DFFA168CF4AC1F30311515C31
:100F400001F01F01C840CD4908600020FFF7E4FB15
:100F500000287DD12FE000BFFFF7C0FBA0EB080009
:100F6000022876D820688007F6D5206840F008006F
:100F70002060206801E0BBE00CE0296A20F0F0006E
:100F8000084320606068E96920F47F4040EA01205E
:100F9000606010E020F001002060FFF79FFB8046BA
:100FA00006E000BFFFF79AFBA0EB08000228D8D8A4
:100FB00020688007F6D42878C00740D0082E18D0C3
:100FC0000C2E01D1032F14D06868B0F5803F17D0E4
:100FD000B0F5A02F206817D020F480302060206862
:100FE00020F4802020606868E0B1FFF777FB80463E
:100FF00014E02068800322D56868002878D01EE0BD
:10100000206840F48030EDE740F480202060F7E76E
:10101000FFF764FBA0EB08006428A2D820688003D7
:10102000F6D50CE0FFF75AFB804605E0FFF756FBCC
:10103000A0EB0800642894D820688003F6D42878B0
:1010400080073BD5042E11D00C2E04D1022F01E0D5
:1010500036E1A1E00AD0E868002820681ED040F4FC
:1010600080702060FFF73AFB07460CE020684005DF
:101070000CD5E8680028C1D008E000BFFFF72EFBC0
:10108000C01B022893D820684005F7D56068297CEA
:1010900020F0F85040EA016060600FE020F48070BA
:1010A0002060FFF71BFB074605E000BFFFF716FBBC
:1010B000C01B022870D820684005F7D428780007A4
:1010C00029D568690028D4F8940012D040F00100B6
:1010D000C4F89400FFF702FB074604E0FFF7FEFAAE
:1010E000C01B022858D8D4F894008007F6D512E027
:1010F000EDE020F00100C4F89400FFF7EFFA074696
:1011000005E000BFFFF7EAFAC01B022844D8D4F874
:1011100094008007F6D42878400768D5A06D002792
:10112000C00008D4A06D40F08050A065A06D0127DC
:1011300000F08050009052480168C90512D401683F
:10114000814641F480710160FFF7C8FA804605E0EE
:10115000FFF7C4FAA0EB080002281DD8D9F8000058
:10116000C005F5D5A868012817D00528D4F8900047
:1011700018D020F00100C4F89000D4F8900020F0BE
:10118000040000BFC4F89000A86841F28839D0B1CB
:10119000FFF7A4FA804611E06BE0D4F8900040F02D
:1011A0000100EFE740F00400C4F89000F5E700BF4D
:1011B000FFF794FAA0EB080149455AD8D4F89000FB
:1011C0008007F5D50EE0FFF789FA804606E000BFFC
:1011D000FFF784FAA0EB0801494570D8D4F89000D5
:1011E0008007F5D41FB1A06D20F08050A065A86ADB
:1011F000F0B30C2E6BD00228206820F080702060A5
:1012000004D0206810F0205F47D04AE0FFF766FA6C
:10121000064604E0FFF762FA801B02284FD82068D8
:101220008001F7D4286BE96A000110380843696B24
:10123000AA6B0902120941EA42410843A98F114AE7
:10124000490802EB4151084395F840104908120142
:1012500002EB41610843E060206840F0807020604C
:10126000E06840F08070E060FFF738FA054610E073
:101270002BE024E000100240802E00081C0000201B
:10128000007000400000E0FFFFF728FA401B022832
:1012900015D820688001F7D517E0E06820F003003A
:1012A000E060E0680B490840E060FFF717FA054688
:1012B00008E000BFFFF712FA401B022802D9032002
:1012C000BDE8F88320688001F4D40020F8E701200D
:1012D000F6E70000FFFFEEFE4FF0E021042808696A
:1012E00003D020F004000861704740F00400FAE7E2
:1012F000704710B5401EB0F1807F01D3012010BDB2
:101300004FF0E02460610F21601700F07CFD0020A9
:10131000A06107202061002010BD10B5FFF7E8FF95
:1013200010BD7047704700002DE9F0410268044687
:10133000D0691168936810F00F0F4FF000055BD073
:1013400003F0010601F49077374369D0C70707D04F
:10135000CF0505D501271762626F42F0010262676F
:10136000820708D5DA0706D0276802223A62626F40
:1013700042F004026267420708D5DA0706D0236804
:1013800004221A62626F42F00202626702070AD503
:1013900001F02002324306D0236808221A62626FED
:1013A00042F008026267626F002A32D0800605D5DB
:1013B000880603D5216E09B120468847606F000773
:1013C00003D420688068400625D5204601F0A7F8A0
:1013D00020688168490619D5816821F04001816043
:1013E000E06E98B120498163E06EFFF755F8002860
:1013F0000FD0E06E816B06E0860611D58E060FD504
:10140000216E1EE02046BDE8F04108472046FFF768
:1014100089FFBDE8F0812046FFF784FF6567F8E7A4
:10142000C60209D55B0207D54FF480101062204632
:10143000BDE8F041FFF775BF030605D50B0603D5E0
:10144000616E0029DED1E4E74006E2D54806E0D52A
:101450001168204621F040011160202184F87110AC
:10146000656600F03FF9D4E70B25000810B50400CD
:1014700003D094F8710010B107E0012010BD0020E6
:1014800084F87000204600F027F8242084F87100CA
:101490002068016821F001010160204601F0AAF8EE
:1014A0000128EBD0606A10B1204600F09CFF206854
:1014B000416821F4904141602068816821F02A014F
:1014C00081602068016841F0010101602046BDE8AB
:1014D000104000F0ECBF0000F0B5214F066800227C
:1014E000204902230324072587B04FF09040BE42D5
:1014F00017D10E6E46F480460E66096E02AE01F4F8
:10150000804105916102CDE9001386E83400694607
:10151000FEF7F8FF002211462520FFF761F925208C
:1015200019E0114FBE4218D18E6D46F400368E651B
:10153000896D02AE01F4003105910C21CDE9001353
:1015400086E834006946FEF7DDFF002211462620BA
:10155000FFF746F92620FFF737F907B0F0BD000086
:1015600000380140001002400044004030B590F8BF
:101570007230202B4AD1B1B1AAB190F87030012B52
:1015800044D0012380F870304165A0F85820A0F8BD
:101590005A20002202661D038168FF23A94207D159
:1015A000016911B10CE0012030BD40F2FF110DE0E6
:1015B0007F2419B1B1F1805F05D009E0016901BB59
:1015C000A0F85C3004E00169D9B13F21A0F85C10BB
:1015D0004267222180F8721001688B6843F0010392
:1015E0008B608168A94201D1016969B1084901662E
:1015F00080F870200068016841F49071016000205B
:1016000030BDA0F85C40E3E70249F0E7022030BDBE
:101610009B2500083F25000810B5044600F082FB1A
:101620002046BDE8104001220149FFF79FBF00009E
:10163000250000202DE9F843044690F871001F466C
:1016400016460D4620284BD1C5B1BEB194F87000A6
:10165000012845D0012084F870004FF00008C4F83C
:101660007480212084F87100FFF738F8A4F85060E6
:101670008146A4F852604FF4805615E00120BDE881
:10168000F8838021204601F005F9D8B9A068B0425E
:1016900001D12069C0B115F8010B21680885B4F8A3
:1016A0005200401EA4F85200B4F852004B464FF0CE
:1016B000000200970028E4D14FF04001204601F0DD
:1016C000E9F830B10320DAE735F8020BC0F308007F
:1016D000E3E7202084F8710084F870800020CEE7D2
:1016E0000220CCE77047FEE770B5104D4FF48054F0
:1016F000002221462846FEF7ECFF00F019F80122EF
:10170000960231462846FEF7E4FF00F011F8002269
:1017100031462846FEF7DDFF00F00AF8214628464C
:10172000BDE870400122FEF7D4BF00000008004869
:101730000020401CC0B21428FBD370470C4800B5F1
:10174000C16C87B041F00401C164C06C694600F00F
:10175000040005904FF4A05000901120019001204A
:1017600003900448FEF7CEFE00F0AAF807B000BDD3
:10177000001002400008004870B50C4C0122110313
:101780002046FEF7A6FFFFF7D3FF01229502294668
:101790002046FEF79EFFFFF7CBFF0022294620469A
:1017A000FEF797FFBDE87040FFF7C2BF0008004892
:1017B0002DE9F0470024164E804625464FF4805907
:1017C0004FF480676006040E012239463046FEF76A
:1017D00080FFFFF7ADFF49463046FEF775FF08B1C1
:1017E000641CE4B2002239463046FEF772FFFFF770
:1017F0009FFF6D1CEDB2082DE4D3B8F1000F04D0AB
:10180000FFF772FF2046BDE8F087FFF7B5FFF9E765
:10181000000800482DE9F041174E054600244FF41A
:1018200080674FF48058280601D5012200E000228D
:1018300041463046FEF74DFFFFF77AFF0122394659
:101840003046FEF746FFFFF773FF00223946304669
:10185000FEF73FFF072C04D1012241463046FEF738
:1018600038FF6806050EFFF763FF641CE4B2082C1E
:10187000D9D3BDE8F08100000008004870B501220E
:101880000E4D140321462846FEF723FF012296023F
:1018900031462846FEF71DFFFFF74AFF002221468A
:1018A0002846FEF716FFFFF743FF00223146284681
:1018B000FEF70FFFBDE87040FFF73ABF0008004891
:1018C00070B50B4D4FF48054002221462846FEF798
:1018D00000FF012291022846FEF7FBFEFFF728FFDA
:1018E00021462846BDE870400122FEF7F2BE000006
:1018F0000008004870B50122104D14032146284607
:10190000FEF7E7FEFFF714FF012296023146284654
:10191000FEF7DFFEFFF70CFF21462846FEF7D4FE58
:1019200008B1012400E00024002231462846FEF7D9
:10193000D0FEFFF7FDFE204670BD00000008004805
:1019400070B5104D4FF40074002221462846FEF772
:10195000C0FE00F019F80122160231462846FEF7B3
:10196000B8FE00F011F8002231462846FEF7B1FE1D
:1019700000F00AF821462846BDE870400122FEF733
:10198000A8BE0000000400480020401CC0B20A2885
:10199000FBD370470C4800B5C16C87B041F0020121
:1019A000C164C06C694600F0020005904FF44070BD
:1019B000009011200190012003900448FEF7A2FD41
:1019C00000F0AAF807B000BD001002400004004873
:1019D00070B50C4C012251022046FEF77AFEFFF74B
:1019E000D3FF0122150229462046FEF772FEFFF7BB
:1019F000CBFF002229462046FEF76BFEBDE8704073
:101A0000FFF7C2BF000400482DE9F0470024164E3E
:101A1000804625464FF400794FF480776006040E27
:101A2000012239463046FEF754FEFFF7ADFF494626
:101A30003046FEF749FE08B1641CE4B20022394684
:101A40003046FEF746FEFFF79FFF6D1CEDB2082DF6
:101A5000E4D3B8F1000F04D0FFF772FF2046BDE8D1
:101A6000F087FFF7B5FFF9E7000400482DE9F041E2
:101A7000174E054600244FF480774FF4007828066F
:101A800001D5012200E0002241463046FEF721FE4A
:101A9000FFF77AFF012239463046FEF71AFEFFF7BC
:101AA00073FF002239463046FEF713FE072C04D19F
:101AB000012241463046FEF70CFE6806050EFFF790
:101AC00063FF641CE4B2082CD9D3BDE8F0810000A8
:101AD0000004004870B501220E4D540221462846EC
:101AE000FEF7F7FD0122160231462846FEF7F1FD0A
:101AF000FFF74AFF002221462846FEF7EAFDFFF7DE
:101B000043FF002231462846FEF7E3FDBDE8704062
:101B1000FFF73ABF0004004870B50B4D4FF4007456
:101B2000002221462846FEF7D4FD01221102284654
:101B3000FEF7CFFDFFF728FF21462846BDE870409D
:101B40000122FEF7C6BD00000004004870B5012266
:101B5000104D540221462846FEF7BBFDFFF714FF47
:101B60000122160231462846FEF7B3FDFFF70CFFAF
:101B700021462846FEF7A8FD08B1012400E0002414
:101B8000002231462846FEF7A4FDFFF7FDFE204661
:101B900070BD000000040048094B012808D002284D
:101BA00009D003280AD1002204211846FEF791BD6E
:101BB00000220121F9E700220221F6E77047000028
:101BC00000080048094B012808D0022809D0032842
:101BD0000AD1012204211846FEF77BBD01221146DD
:101BE000F9E701220221F6E77047000000080048EB
:101BF00030B5204887B0C16C41F00101C164C16CAF
:101C000001F001010591C16C41F00401C164C16C96
:101C100001F004010591C16C41F00201C164C06C86
:101C2000154D00F0020040F2671405900022214695
:101C30002846FEF74EFD0120CDE900400024029425
:101C4000694628460394FEF75DFC4FF47840022570
:101C50008DE8310069460948FEF754FC4FF4C05046
:101C60008DE8310069464FF09040FEF74BFC07B01D
:101C700030BD000000100240000800480004004889
:101C80000E4810B50C4901604FF4E131416000216C
:101C900081600C22C160C0E904128161C1610162EE
:101CA0004162FFF7E3FB002805D0BDE81040452165
:101CB00003A000F0A8BF10BD003801405000002074
:101CC0002E2E2F5372632F75736172742E63000072
:101CD0000E4810B50C4901604FF4E131416000211C
:101CE00081600C22C160C0E904128161C16101629E
:101CF0004162FFF7BBFB002805D0BDE810405A2128
:101D000003A000F080BF10BD00440040C8000020C8
:101D10002E2E2F5372632F75736172742E63000021
:101D2000FEE700001248017801F003024270C1F39F
:101D3000800282700909C1700E494A788B7852007E
:101D4000C97842EA830242EAC101027941EA0211FA
:101D5000094A127841EA821200F109010A704279B7
:101D60004A7082798A70C279CA70007A08717047A5
:101D700025000020210000200F000020094810B598
:101D8000007801280CD1084CA07800F00FF840F240
:101D9000DC50FEF7A8FBA078BDE8104000F01CB8AE
:101DA00010BD0000270000200C000020094B012876
:101DB00008D0022809D003280AD1012211021846AE
:101DC000FEF787BC01222021F9E701224021F6E736
:101DD0007047000000080048094B012809D002287C
:101DE0000AD003280BD100224FF480711846FEF769
:101DF00070BC00222021F9E700224021F6E770475D
:101E00000008004870470907090E002806DA00F0AC
:101E10000F0000F1E02080F8141D704700F1E02071
:101E200080F80014704770472DE9F041444C054696
:101E30008846E0680026810728680DD0E16801F037
:101E40000301814216D1A8B1E0686968C0F30210AD
:101E5000401C88420ED120E0012804D0022805D081
:101E6000032807D108E02168890701E021684905B6
:101E7000002907DB01265FE02168890302D421687D
:101E80004903F5E7E1686A686FF00F0321F0730119
:101E900003EB021211430143E160206820F08060EF
:101EA0002060FEF71BFC074605E000BFFEF716FCAE
:101EB000C01B022837D820680001F7D4B8F1000F02
:101EC00018D0B8F1010F1ED0287D4FF07E41400898
:101ED00001EB4060A96840EA01202169194A1140DC
:101EE00008432061206840F080602060FEF7F6FB28
:101EF00007461AE0A868E9680002090940EA41407B
:101F00002169114AEBE7288A1049400801EB40504B
:101F1000A96840EA012021690D4AE0E7FEF7DEFBEF
:101F2000C01B022801D9032606E020680001F5D570
:101F30002069A969084320613046BDE8F0810000AE
:101F400000100240FF80FFF9FF80FDFF0000E0FF6E
:101F5000FF809FFF2DE9F0413D4C06468846E06832
:101F60000025810730680DD0E16801F0030181424E
:101F700016D1A8B1E0687168C0F30210401C884215
:101F80000ED120E0012804D0022805D0032807D173
:101F900008E02168890701E021684905002907DB7D
:101FA000012551E02168890302D421684903F5E73E
:101FB000E16872686FF00F0321F0730103EB021206
:101FC00011430143E160206820F080502060FEF75B
:101FD00085FB074605E000BFFEF780FBC01B02281B
:101FE00029D820688000F7D4B8F1000F15D0307CD4
:101FF0004FF07E41400801EB4060B16840EA0120AB
:102000006169144A114008436061206840F08050C3
:102010002060FEF763FB07460FE0B068F16800023E
:10202000090940EA414061690B4AEBE7FEF756FBBC
:10203000C01B022801D9032506E020688000F5D5E1
:1020400060697169084360612846BDE8F08100005D
:1020500000100240FF80FFF9FF80FDFFF8B51C4D26
:1020600006460024A86DC00002D5FEF71FFC0DE057
:10207000A86D40F08050A865A86D00F080500090D9
:10208000FEF714FCA96D21F08051A965B0F5007F21
:1020900004D0802E07D94FF003040AE0802E08D91F
:1020A000A02E01D804E001D1022402E0702E00D15C
:1020B00001240848016821F00701214301600068FC
:1020C00000F00700A04201D00120F8BD0020F8BDBB
:1020D000001002400020024010B54D21522000F0B7
:1020E0006BFDC007F9D001221821522000F015FC29
:1020F0001821522000F060FD114908704F21522034
:1021000000F05AFD00F0070408E04F21522000F0D3
:1021100053FD00F007040120FEF7E5F9042CF4D18B
:102120000A20FEF7E0F96221522000F045FD044646
:1021300002221521522000F0F0FB204610BD0000C5
:10214000440000200D4A10B51078012814D10C4924
:102150000020C87010700B4A8870487010700870AA
:1021600048600120FFF718FD0220FFF715FDBDE8CC
:1021700010400320FFF710BD10BD00002700002015
:102180000C00002020000020704710B5FEF7ACFACC
:10219000BDE81040FFF7C1B830B5B9B00220C101A9
:1021A00025911021229026912C900121CDE92D011D
:1021B00014212F910721CDE930100420329022A85C
:1021C000FEF758FE00B1FEE7002403250F20CDE9FD
:1021D000345433903694042133A83794FEF742FDEB
:1021E00000B1FEE700950E9468460F94FEF766FB7B
:1021F00000B1FEE74FF40070FEF724FB00B1FEE7EC
:10220000FEF7BCFD4FF47A71B0FBF1F0FFF771F807
:102210000420FFF761F800221146501EFEF7E0FA95
:1022200039B030BD0D48016841F4700101600C48BF
:10223000016841F001010160002181600268094BE1
:102240001A4002608214C260026822F48022026096
:1022500081610249C00380390860704788ED00E061
:1022600000100240FFFFF6EA10B50121002000F047
:10227000A1F80321002000F09DF8BDE810400320E4
:10228000FEF731B970B506221C49162000F05DF842
:102290001A48841F0188C90921804288D2096280B6
:1022A0008088C309A38016A000F0AEFC184D2088DA
:1022B000184E287061883170A288174CFF23FF28C0
:1022C000227000D92B70FF2900D93370FF2A00D962
:1022D0002370124B884203D9904201D900241C700C
:1022E000814203D9914201D901241C708A4203D949
:1022F000824201D90220187070BD00003E0000200B
:10230000523D256420473D256420423D25640A0056
:102310002B0000202C0000202D0000202900002090
:1023200010B500204FF47A720221491C9142FCDB67
:10233000401C9042F8DBC021012000F03BF8022154
:10234000BDE810400F2000F035B870B516460D46B8
:102350000446FFF7BFFB5220FFF788FBFFF7F6FBB1
:1023600044F08000FFF782FBFFF7F0FBFFF7B2FBC2
:102370005320FFF77BFBFFF7E9FB0024761E06E006
:102380000120FFF741FB641C05F8010BE4B2B442E5
:10239000F6DB0020FFF738FB2870BDE87040FFF740
:1023A000BBBB0000012202491220FFF7CEBF000094
:1023B0003600002070B50D460446FFF78BFB522017
:1023C000FFF754FBFFF7C2FB44F08000FFF74EFB22
:1023D000FFF7BCFB2846FFF749FBFFF7B7FBBDE85B
:1023E0007040FFF799BB90F82410C90706D0016828
:1023F0004A68836A22F400321A434A6090F8241033
:10240000890706D501684A68C36A22F480321A43F4
:102410004A6090F82410490706D501684A68036BA2
:1024200022F480221A434A6090F82410090706D546
:1024300001684A68436B22F400421A434A6090F8EC
:102440002410C90606D501688A68836B22F480527D
:102450001A438A6090F82410890606D501688A68B4
:10246000C36B22F400521A438A6090F82410490684
:1024700011D501684A68036C22F480121A434A603D
:10248000016CB1F5801F06D101684A68436C22F4E3
:10249000C0021A434A6090F82410090606D5016864
:1024A0004A68806C22F4002202434A607047F8B503
:1024B000002604464667FEF711F9054620680068C5
:1024C0006FF07E47000708D52B4600224FF400111D
:1024D0002046009700F0DEF960B9206800684007E8
:1024E0000AD52B4600224FF480012046009700F0C9
:1024F000D1F908B10320F8BD202084F8710084F8D8
:10250000720084F870600020F8BD10B5806A002168
:10251000A0F85A10A0F85210FEF704FF10BD016891
:102520000A6822F490720A6001688A6822F0010247
:102530008A60202180F8721000210166704710B572
:10254000B0F85C2090F872300168222B04D0088B20
:1025500040F00800088310BD898C436D114019803C
:10256000416D891C4165B0F85A10491E0904090CD7
:10257000A0F85A10EFD101680A6822F490720A603C
:1025800001688A6822F001028A60202180F87210B6
:1025900000210166FFF740F810BD10B5B0F85C20CF
:1025A00090F872300168222B04D0088B40F00800AC
:1025B000088310BD898C1140426D531C4365117016
:1025C000B0F85A10491E0904090CA0F85A10F0D1AD
:1025D00001680A6822F490720A6001688A6822F031
:1025E00001028A60202180F8721000210166FFF745
:1025F00013F810BD2DE9F041044601688068236995
:10260000E669184363691025002733431843954A48
:102610000B68954E334003430B6020684168E368C4
:1026200021F44051194341602168A069914201D0D1
:10263000236A18438B6823F4306303438B608B4B0E
:1026400021688B4899420DD1D0F8880010F0030022
:1026500006D001285AD0022856D0032859D157E075
:10266000012556E0834B99420BD1D0F8880010F039
:102670000C0047D0042849D0082845D00C2848D160
:1026800046E07D4B99420BD1D0F8880010F0300025
:1026900038D010283AD0202836D0302839D137E029
:1026A000764B99420BD1D0F8880010F0C00029D0A9
:1026B00040282BD0802827D0C0282AD128E0704B72
:1026C00099420ED1D0F8880010F440701AD0B0F5BD
:1026D000807F1BD0B0F5007F16D0B0F5407F18D1B9
:1026E00016E0914215D1D0F8880010F4406009D06E
:1026F000B0F5806F0AD0B0F5006F05D0B0F5406F2F
:1027000007D105E0002504E0022502E0042500E0F1
:1027100008255C4B00264FF4004091423DD135B175
:10272000022D07D0042D07D0082D10D107E0FEF7A9
:102730002BFB03E0184602E0FEF74AFBA8B36268F1
:1027400002EB4201814202D8B0EB023F01D90127DE
:1027500075E0DFF834815DB1022D0CD0042D13D06B
:10276000082DF4D150082905401846F1000105E074
:10277000FEF70AFB0AE050084449F5E70023FDF79D
:102780001FFDA0F5407156E0FEF722FB6268010EC6
:102790000302500818187141F0E7E1694FF6EF782D
:1027A00081422FD1092DD2D200E048E0DFE805F0C8
:1027B00006092005230505052600C8E7FEF7E4FA0B
:1027C00001E0FEF7F3FA4100D4F8040001EB5001F8
:1027D000B1FBF0F080B2A0F110014145B7D84FF63F
:1027E000F0710140C0F3420001432068C16026E05F
:1027F00027496068EAE7FEF7EBFAE4E74FF4803137
:102800006068E3E7092DA2D2DFE805F006091E059E
:102810002205050525009AE7FEF7B6FA01E0FEF766
:10282000C5FA0146606801EB500100BFB1FBF0F052
:1028300080B2A0F11001414589D82168C8602666A0
:1028400038466666BDE8F081606803EB5001EDE74D
:10285000FEF7BEFAE5E7616800EB5100B0FBF1F06E
:10286000E6E7000000800040F369FFEF0038014018
:10287000001002400044004000480040004C00406E
:10288000005000400024F400FFFC0F00000024F47E
:102890000048E8012DE9F041984617460E460446E7
:1028A000069D1DE0681C1BD02DB1FDF717FFA0EBA6
:1028B0000800A84214D92068016821F4D071016091
:1028C0002068816821F001018160202084F8710076
:1028D00084F87200002084F870000320BDE8F081C5
:1028E0002068C06936EA000004D00020B842D9D080
:1028F0000020F3E70120F9E70148FEF715BD0000CD
:10290000500000200148FEF70FBD0000C800002065
:10291000FEE70021522000F04FB970B515460C0AB1
:10292000CEB2FEF7ABFF5220FEF774FFFEF7E2FFD8
:102930002046FEF76FFFFEF7DDFF3046FEF76AFF29
:10294000FEF7D8FF2846FEF765FFFEF7D3FFBDE888
:102950007040FEF7B5BF000010B50024FFF7D9FFA7
:10296000B428FBD10520FDF7BEFD0122162152201F
:10297000FFF7D3FF1621522000F01EF9012804D0E2
:10298000641CE4B2642CF5D310BD40F2072401228C
:1029900021465220FFF7C1FF2146522000F00CF9DA
:1029A000844C01224FF4027120705220FFF7B5FFD2
:1029B000002296215220FFF7B0FFFD2297215220DE
:1029C000FFF7ABFF0022E3215220FFF7A6FF04220E
:1029D000E4215220FFF7A1FFE421522000F0ECF89F
:1029E00020700222E5215220FFF797FF0122E62105
:1029F0005220FFF792FF0322E7215220FFF78DFFBD
:102A00000222F5215220FFF788FF0522D92152200A
:102A1000FFF783FFCE22DB215220FFF77EFF032248
:102A2000DC215220FFF779FFF822DD215220FFF749
:102A300074FF00229F215220FFF76FFF3C22A32149
:102A40005220FFF76AFF0022B7215220FFF765FFEF
:102A50003C22BB215220FFF760FF0922B221522005
:102A6000FFF75BFF0922CA215220FFF756FF012220
:102A70004FF4CC715220FFF750FF17224FF4D8715A
:102A80005220FFF74AFF002240F2AD115220FFF71B
:102A900044FF0522FF215220FFF73FFF05224FF49C
:102AA00080715220FFF739FF052240F29911522020
:102AB000FFF733FF1B224FF4D3715220FFF72DFF96
:102AC0003E224FF4D6715220FFF727FF1F2240F21B
:102AD000A7115220FFF721FF002230215220FFF7DB
:102AE0001CFF3021522000F067F820700A221B21C1
:102AF0005220FFF712FFFF2231215220FFF70DFF76
:102B000001222E215220FFF708FF32221C215220E1
:102B1000FFF703FF11222D215220FFF7FEFE0022B6
:102B200022215220FFF7F9FE7B2223215220FFF7BA
:102B3000F4FE0A223E215220FFF7EFFE3E215220F2
:102B400000F03AF82070002240215220FFF7E5FE05
:102B5000632241215220FFF7E0FE30224FF48571BD
:102B60005220FFF7DAFE41223F215220FFF7D5FE27
:102B70003F21522000F020F8207001224FF4907184
:102B80005220FFF7CAFE002210215220FFF7C5FE97
:102B9000002211215220FFF7C0FE242214215220CE
:102BA000FFF7BBFE00221621BDE810405220FFF7C0
:102BB000B4BE00004400002070B505460C0ACEB239
:102BC000FEF75CFE2846FEF725FEFEF793FE204644
:102BD000FEF720FEFEF78EFE3046FEF71BFEFEF7E8
:102BE00089FEFEF76DFEFEF749FE45F00100FEF797
:102BF00011FEFEF77FFE0020FEF7DAFD0446FEF729
:102C00005FFE204670BDFEE70FB4054B10B503A96B
:102C1000044A029800F018F810BC5DF814FB00009C
:102C20009D2D00084C00002002E008C8121F08C1BA
:102C3000002AFAD170477047002001E001C1121F3D
:102C4000002AFBD1704700002DE9FF4F89B09B4659
:102C50000446002506E025280BD05A460B999047DC
:102C6000641C6D1C20780028F5D10DB02846BDE805
:102C7000F08F0027B8460122474900E0074314F8C7
:102C8000013F203B02FA03F00842F7D120782E28BA
:102C900019D114F8010F47F004072A280ED06FF05D
:102CA0002F022078A0F1300109290CD808EB880107
:102CB00002EB410100EB0108641CF2E70A98641C76
:102CC00050F8048B0A9020780028CED0642808D0D1
:102CD000692806D075281ED05A460B9990476D1C5E
:102CE00058E00A994FF00A0901C90A91002802DA4E
:102CF00040422D2102E0390504D52B218DF820100A
:102D0000012103E0F90704D02021F7E78A4608AE45
:102D10000DE00021FAE70A994FF00A0901C90A916A
:102D2000F7E74946FDF790FA303106F8011D002813
:102D3000F7D1ADEB060000F12009780701D44FF080
:102D40000108C84502DDA8EB090000E0002080462C
:102D5000002706E008A85A46C05D0B9990476D1CF5
:102D60007F1C5745F6DB04E030205A460B9990470C
:102D70006D1CB8F10001A8F10108F5DC05E016F8BA
:102D8000010B5A460B9990476D1CB9F10001A9F14E
:102D90000109F4DC641C65E70928010013B54FF64E
:102DA000FF73012269460248FEF744FC00981CBDEF
:102DB000C8000020FDF7A0FCFFF7EEF9FEF718FFB2
:102DC000FEF786FFFEF75CFFFEF7E4FDFFF7A8FACB
:102DD00023A0FFF719FFFFF747FAFFF7E3FA0520F3
:102DE000FDF781FBFEF7AAFCFFF793FD1E4C207058
:102DF000FFF7B2FD01221D491D48FEF7B7FB1D4E2E
:102E00001D4D0120FEF7D2FF0220FEF7CFFF032069
:102E1000FEF7CCFFFFF760F93070FFF733FAFFF7EA
:102E2000C1FA2868401C2860FDF710FBFDF7A0FAE6
:102E3000FDF754FAFEF776FFFDF750FC6060A168DD
:102E4000401A6428DDD9642305220C490848FEF79E
:102E5000F1FB6078401C6070FDF740FCA060D0E79B
:102E600068656C6C6F0A00000000002025000020DF
:102E7000500000202A000020140000202E00002016
:102E8000000000000000000001020304060708091A
:102E9000A0860100400D0300801A060000350C00DA
:102EA00040420F0080841E0000093D0000127A009D
:102EB0000024F40000366E010048E801006CDC02DA
:102EC0000000000001020304E82E000800000020BA
:102ED00050000000282C0008382F00085000002067
:102EE000F0040000382C0008000000000000000082
:102EF00000000000000000000000000000000000D2
:102F00000000000000093D0000000000000000007B
:102F100000000000000000000000000000000000B1
:102F200000000000000000000000000000000000A1
:082F3000000000000000000099
:040000050800018965
:00000001FF
